:100000000C9436010C9455010C9455010C94550137
:100010000C9455010C9455010C9455010C94550108
:100020000C9455010C9455010C9455010C945501F8
:100030000C9455010C9487050C9455010C945501B2
:100040000C9455010C9455010C9455010C945501D8
:100050000C9455010C9455010C9455010C945501C8
:100060000C9455010C9455010C9455010C945501B8
:100070000C9455010C9455010C9455010C945501A8
:100080000C9455010C9455010C945501000000008E
:100090000000005F00000007000700147F147F14B9
:1000A000242A7F2A122313086462364955225000FD
:1000B00005030000001C2241000041221C0014081E
:1000C0003E081408083E08080050300000080808E0
:1000D0000808006060000020100804023E514945F5
:1000E0003E00427F400042615149462141454B312B
:1000F0001814127F1027454545393C4A49493001BB
:10010000710905033649494936064949291E003611
:100110003600000056360000081422410014141462
:100120001414004122140802015109063249794190
:100130003E7E1111117E7F494949363E414141229F
:100140007F4141221C7F494949417F090909013EFC
:100150004149497A7F0808087F00417F41002040DB
:10016000413F017F081422417F404040407F020C04
:10017000027F7F0408107F3E4141413E7F0909090B
:10018000063E4151215E7F091929464649494931B8
:1001900001017F01013F4040403F1F2040201F3FA1
:1001A0004038403F63140814630708700807615122
:1001B000494543007F4141000204081020004141AD
:1001C0007F0004020102044040404040000102045C
:1001D0000020545454787F484444383844444420E0
:1001E000384444487F3854545418087E0901020C9E
:1001F0005252523E7F0804047800447D4000204063
:10020000443D007F1028440000417F40007C0418DA
:1002100004787C0804047838444444387C1414146A
:1002200008081414187C7C0804040848545454200A
:10023000043F4440203C4040207C1C2040201C3C8B
:100240004030403C44281028440C5050503C4464FA
:10025000544C44000836410000007F000000413645
:1002600008001008081008000000000011241FBE3C
:10027000CFEFD0E4DEBFCDBF11E0A0E0B1E0E8EE0B
:10028000F3E100E00BBF02C007900D92AE37B1075B
:10029000D9F723E0AEE7B1E001C01D92A639B2075D
:1002A000E1F70E9469070C94F2090C9400001F9377
:1002B000CF93DF9300D0CDB7DEB789836A8385E221
:1002C00090E025E230E0F90120812D7FFC012083C0
:1002D0008A81882351F085E290E025E230E0F9013F
:1002E00020812860FC01208309C085E290E025E29E
:1002F00030E0F9012081277FFC01208310E03CC021
:100300008981882F90E0212F30E047E050E0BA014A
:10031000621B730B9B0102C0959587952A95E2F7A6
:1003200081709927892B51F085E290E025E230E039
:10033000F90120812061FC01208309C085E290E061
:1003400025E230E0F90120812F7EFC01208385E247
:1003500090E025E230E0F90120812062FC01208359
:1003600085E290E025E230E0F90120812F7DFC015B
:100370002083812F11E0180F183010F285E290E0F1
:1003800025E230E0F90120812260FC012083000099
:100390000F900F90DF91CF911F910895CF93DF932E
:1003A0001F92CDB7DEB7898360E089810E94570133
:1003B00000000F90DF91CF910895CF93DF931F92AC
:1003C000CDB7DEB7898361E089810E9457010000C3
:1003D0000F90DF91CF9108950F931F93CF93DF93E9
:1003E000CDB7DEB76C970FB6F894DEBF0FBECDBFAA
:1003F00084E290E024E230E0F90120812260FC01F7
:10040000208384E290E024E230E0F901208124603E
:10041000FC01208384E290E024E230E0F9012081B5
:100420002860FC01208384E290E024E230E0F901BE
:1004300020812061FC01208384E290E024E230E00E
:10044000F90120812062FC01208385E290E025E211
:1004500030E0F90120812460FC01208385E290E0F6
:1004600025E230E0F90120812260FC01208380E058
:1004700090E0A0E2B1E489839A83AB83BC8320E05F
:1004800030E04AE753E469817A818B819C810E9444
:100490005D09DC01CB018B8B9C8BAD8BBE8B20E08F
:1004A00030E040E85FE36B897C898D899E890E94FA
:1004B000D70888232CF481E090E0988F8F8B3FC081
:1004C00020E03FEF4FE757E46B897C898D899E8957
:1004D0000E94580918164CF520E030E040E251E443
:1004E00069817A818B819C810E945D09DC01CB014D
:1004F000BC01CD010E94DC08DC01CB01988F8F8B01
:100500000FC089E190E09A8F898F898D9A8D01972C
:10051000F1F79A8F898F8F89988D0197988F8F8B9C
:100520008F89988D892B69F714C06B897C898D8997
:100530009E890E94DC08DC01CB01988F8F8B8F890C
:10054000988D9C8F8B8F8B8D9C8D0197F1F79C8F55
:100550008B8F85E290E025E230E0F90120812B7F4E
:10056000FC01208380E090E0ACE8B2E48D839E83C0
:10057000AF83B88720E030E04AE753E46D817E81A5
:100580008F8198850E945D09DC01CB0189879A875C
:10059000AB87BC8720E030E040E85FE369857A857F
:1005A0008B859C850E94D70888232CF481E090E0FD
:1005B0009E878D873FC020E03FEF4FE757E4698576
:1005C0007A858B859C850E94580918164CF520E089
:1005D00030E040E251E46D817E818F8198850E94F8
:1005E0005D09DC01CB01BC01CD010E94DC08DC010E
:1005F000CB019E878D870FC089E190E0988B8F8714
:100600008F8598890197F1F7988B8F878D859E85C7
:1006100001979E878D878D859E85892B69F714C0EC
:1006200069857A858B859C850E94DC08DC01CB017D
:100630009E878D878D859E859A8B898B89899A89DE
:100640000197F1F79A8B898B85E290E025E230E003
:10065000F90120812460FC01208385E290E025E2FD
:1006600030E0F90120812D7FFC01208381E20E948E
:10067000CE0183E10E94CE0186E00E94CE0182EC91
:100680000E94CE0180E20E94CE0189E00E94CE014C
:1006900080E80E94CE0180E40E94CE0100E010E0DC
:1006A00005C080E00E94DD010F5F1F4F083FF1E0B1
:1006B0001F07B8F388E00E94CE018CE00E94CE01B3
:1006C00000006C960FB6F894DEBF0FBECDBFDF9171
:1006D000CF911F910F9108950F931F93CF93DF93A5
:1006E000CDB7DEB780E80E94CE0180E40E94CE0143
:1006F000109276031092770300E010E007C0C80163
:1007000082589E4FFC0110820F5F1F4F083FF1E09F
:100710001F07A8F30000DF91CF911F910F9108955B
:10072000CF93DF931F92CDB7DEB78983898188236A
:1007300011F080E201C084E20E94CE0100000F901F
:10074000DF91CF910895CF93DF9300D000D01F9217
:10075000CDB7DEB78B836C834D838C818695869570
:100760008695882F90E044E5489F9001499F300D81
:1007700011248B81882F90E0820F931F82589E4F07
:100780009A8389838D818823C9F089819A81FC01AC
:100790008081482F8C81882F90E09C01277033271F
:1007A00081E090E002C0880F991F2A95E2F7842B20
:1007B000282F89819A81FC01208319C089819A811F
:1007C000FC018081482F8C81882F90E09C0127704C
:1007D000332781E090E002C0880F991F2A95E2F745
:1007E00080958423282F89819A81FC012083000031
:1007F0000F900F900F900F900F90DF91CF91089571
:100800000F931F93CF93DF9300D000D01F92CDB7EB
:10081000DEB78C836D8310E066C000E04FC08C8132
:10082000082E000C990B9C01205231099D81812FCB
:10083000692F0E94A908482F50E0C901880F991F0D
:10084000880F991F820F931F840F951F84579F4F06
:100850009A83898389819A81FC0184918B838B811E
:10086000282F30E09D81802F692F0E94A908882FB2
:1008700090E0A90102C0559547958A95E2F7CA0113
:1008800081709927892B61F080917703982F900FC1
:1008900080917603810F41E0692F0E94A3030BC072
:1008A00080917703982F900F80917603810F40E01D
:1008B000692F0E94A303802F01E0080F402F50E012
:1008C0008D81282F30E0C901880F991F880F991F4B
:1008D000880F991F821B930B481759070CF49FCF61
:1008E000812F11E0180F412F50E08D81282F30E02B
:1008F000C901880F991F880F991F820F931F4817EE
:1009000059070CF48ACF209176039D81892F880F97
:10091000880F890F820F8F5F809376038091760313
:10092000843570F010927603209177039D81892F92
:10093000880F880F880F891B820F8F5F8093770342
:1009400080917703803320F0109276031092770322
:1009500000000F900F900F900F900F90DF91CF91AC
:100960001F910F910895CF93DF9300D01F92CDB7C1
:10097000DEB79A8389836B830CC089819A819C013D
:100980002F5F3F4F3A832983FC0180816B810E9456
:10099000000489819A81FC018081882371F700001D
:1009A0000F900F900F90DF91CF910895CF93DF9329
:1009B00000D0CDB7DEB789836A83898180937603BF
:1009C0008A818093770300000F900F90DF91CF9181
:1009D00008950F931F93CF93DF93CDB7DEB780E8D1
:1009E0000E94CE0180E40E94CE0100E010E009C028
:1009F000C80182589E4FFC0180810E94DD010F5F7B
:100A00001F4F083FF1E01F0798F30000DF91CF91DF
:100A10001F910F910895CF93DF9300D000D0CDB7F1
:100A2000DEB769837A838B839C8389819A81AB81CA
:100A3000BC818093000190930101A0930201B093C7
:100A400003018091000190910101A0910201B091F8
:100A500003018093790390937A03A0937B03B0936F
:100A60007C0300000F900F900F900F90DF91CF91BB
:100A70000895CF93DF93CDB7DEB781E890E02BE008
:100A8000FC01208388E890E02DE730E0FC01318311
:100A900020838FE690E022E0FC01208384E890E050
:100AA000FC01118210828091000190910101A091BE
:100AB0000201B09103018093790390937A03A0938C
:100AC0007B03B0937C038FE590E02FE530E0F901E4
:100AD00020812068FC0120830000DF91CF910895E0
:100AE000CF93DF93CDB7DEB781E890E0FC011082B1
:100AF0000000DF91CF910895CF93DF93CDB7DEB79C
:100B000081E0809378030000DF91CF9108951F92D8
:100B10000F9200905F000F92112400905B000F92E3
:100B20002F933F934F935F936F937F938F939F93F5
:100B3000AF93BF93EF93FF93CF93DF93CDB7DEB720
:100B40008091790390917A03A0917B03B0917C030B
:100B50000197A109B1098093790390937A03A09337
:100B60007B03B0937C038091790390917A03A091E9
:100B70007B03B0917C03892B8A2B8B2B91F40E94F1
:100B80007C058091000190910101A0910201B0913A
:100B900003018093790390937A03A0937B03B0932E
:100BA0007C030000DF91CF91FF91EF91BF91AF9156
:100BB0009F918F917F916F915F914F913F912F9175
:100BC0000F9000925B000F9000925F000F901F90BB
:100BD0001895CF93DF93CDB7DEB72C970FB6F89467
:100BE000DEBF0FBECDBF6D837E838F83988729873D
:100BF0003A874B875C878D819E81AF81B885298537
:100C00003A854B855C85BC01CD010E94B508DC01AD
:100C1000CB0189839A83AB83BC8389819A81AB8121
:100C2000BC81892B8A2B8B2B29F489859A85AB85EE
:100C3000BC8511C089859A85AB85BC858D839E83D3
:100C4000AF83B88789819A81AB81BC8189879A8774
:100C5000AB87BC87D0CFBC01CD012C960FB6F894E2
:100C6000DEBF0FBECDBFDF91CF910895CF93DF934D
:100C700000D01F92CDB7DEB789837B836A838981D9
:100C80008A3031F48A819B81BC018DE00E94360656
:100C900080EC90E0FC018081882F90E080729927A1
:100CA000892BB1F386EC90E02981FC01208380E060
:100CB00090E00F900F900F90DF91CF910895CF9318
:100CC000DF9300D0CDB7DEB79A83898389819A817B
:100CD0008230910509F44AC0833091052CF40097C5
:100CE00069F0019781F05BC084309105A9F18430EF
:100CF0009105BCF1059709F44FC051C081E090E027
:100D00009A8389834FC080E290E0FC018081882F24
:100D100090E08095909587709927019729F484E059
:100D200090E09A8389833EC080E290E0FC0180815C
:100D3000882F90E08095909587709927029729F4E5
:100D400083E090E09A8389832DC080E290E0FC01EB
:100D500080811A82198226C082E090E09A8389837A
:100D600021C082E090E09A8389831CC080E290E0F9
:100D7000FC018081882F90E080959095877099275D
:100D8000892B29F481E090E09A8389830BC082E06B
:100D900090E09A83898306C01A82198203C01A825E
:100DA0001982000089819A8182309105E9F08330AF
:100DB00091052CF40097D1F00197D1F01CC084303C
:100DC000910531F0843091054CF0059799F013C0EE
:100DD00080917E038F5F80937E030DC080917E03A0
:100DE000815080937E0307C0000005C0000003C04F
:100DF000000001C0000089819A810F900F90DF915F
:100E0000CF910895CF93DF9300D0CDB7DEB79A830B
:100E1000898389819A8181309105E9F08230910539
:100E2000F9F0892B11F580917E03813089F480E2FD
:100E300090E0FC018081882F90E0809590958770EC
:100E40009927049729F481E090E09A83898310C060
:100E50001A8219820DC081E090E09A83898308C0CC
:100E600080E290E0FC01808103C01A8219820000B8
:100E700089819A8181309105B9F08230910509F11B
:100E8000892B09F01FC00E946C0362E083E591E0AA
:100E90000E94B30460E082E00E94D60461E088E52D
:100EA00091E00E94B3040EC061E08EE591E00E94E3
:100EB000B30490917E0380917D03692F0E94D60434
:100EC00001C0000089819A810F900F90DF91CF912E
:100ED00008950F931F93CF93DF93CDB7DEB7299774
:100EE0000FB6F894DEBF0FBECDBF81E290E0FC01EB
:100EF000108282E290E02FEFFC01208384E290E0F8
:100F00002FEFFC01208385E290E0FC01108287E254
:100F100090E02FEFFC01208388E290E0FC0110823A
:100F20008AE290E02FEFFC0120838BE290E0FC014D
:100F3000108280E893E09F838E838BE893E099870B
:100F4000888782E090E09C838B838FEF8D838D81F7
:100F5000809380038AE090E0A0E0B0E0809381037A
:100F600090938203A0938303B093840380918103C1
:100F700090918203A0918303B091840380938503B1
:100F800090938603A0938703B09388038FE596E040
:100F900090938A03809389038D8180938B0384E1EE
:100FA00090E0A0E0B0E080938C0390938D03A09339
:100FB0008E03B0938F0380918C0390918D03A09149
:100FC0008E03B0918F038093900390939103A0932D
:100FD0009203B093930382E097E0909395038093FC
:100FE00094036AE070E080E090E00E940B050E94AC
:100FF00039050E94EC011A8219829BC089819A816D
:10100000880F991F9E012F5F3F4F820F931F0596F8
:10101000FC0180819181FC012581368147815085C9
:1010200089819A81880F991FBE016F5F7F4F860F5C
:10103000971F0596FC0180819181FC01818192813D
:10104000A381B481281739074A075B0709F045C017
:1010500089819A81880F991F9E012F5F3F4F820FD0
:10106000931F0596FC010081118189819A81880F67
:10107000991F9E012F5F3F4F820F931F0596FC0122
:1010800080819181FC012185328589819A81880F37
:10109000991FAE014F5F5F4F840F951F0596FC01AE
:1010A00080819181FC018081082E000C990BF9014F
:1010B0000995F801808389819A81880F991F9E0183
:1010C0002F5F3F4F820F931F0596FC018081918116
:1010D000FC01158216821782108689819A81880FF9
:1010E000991F9E012F5F3F4F820F931F0596FC01B2
:1010F0002081318189819A81880F991FAE014F5FCC
:101100005F4F840F951F0596FC0180819181FC0142
:1011100085819681A781B0850196A11DB11DF90138
:1011200085839683A783B08789819A8101969A8364
:10113000898329813A818B819C812817390708F49A
:101140005DCF0000809178038823E1F3109278034B
:1011500052CF991B79E004C0991F961708F0961B8F
:10116000881F7A95C9F780950895A1E21A2EAA1BC7
:10117000BB1BFD010DC0AA1FBB1FEE1FFF1FA21747
:10118000B307E407F50720F0A21BB30BE40BF50B44
:10119000661F771F881F991F1A9469F760957095CD
:1011A000809590959B01AC01BD01CF0108950E94EF
:1011B0000B0908F481E008950E94370988F09F57D1
:1011C00098F0B92F9927B751B0F0E1F0660F771F6B
:1011D000881F991F1AF0BA95C9F714C0B13091F061
:1011E0000E945109B1E008950C945109672F782F9E
:1011F0008827B85F39F0B93FCCF386957795679526
:10120000B395D9F73EF490958095709561957F4F91
:101210008F4F9F4F0895990F0008550FAA0BE0E8D4
:10122000FEEF16161706E807F907C0F012161306A8
:10123000E407F50798F0621B730B840B950B39F4E8
:101240000A2661F0232B242B252B21F408950A264E
:1012500009F4A140A6958FEF811D811D089557FDCA
:101260009058440F551F59F05F3F71F04795880F14
:1012700097FB991F61F09F3F79F0879508951216AB
:1012800013061406551FF2CF4695F1DF08C0161657
:1012900017061806991FF1CF869571056105089408
:1012A0000895E894BB2766277727CB0197F908951F
:1012B0000E940B0908F48FEF08950E9470090C94A6
:1012C000E1090E94D30938F00E94DA0920F0952341
:1012D00011F00C94CA090C94D00911240C945209F1
:1012E0000E942F0970F3959FC1F3950F50E0551F91
:1012F000629FF001729FBB27F00DB11D639FAA276B
:10130000F00DB11DAA1F649F6627B00DA11D661FB9
:10131000829F2227B00DA11D621F739FB00DA11DDA
:10132000621F839FA00D611D221F749F3327A00D94
:10133000611D231F849F600D211D822F762F6A2F30
:1013400011249F5750409AF0F1F088234AF0EE0F95
:10135000FF1FBB1F661F771F881F91505040A9F7C2
:101360009E3F510580F00C94CA090C9452095F3FCE
:10137000E4F3983ED4F3869577956795B795F795FE
:10138000E7959F5FC1F7FE2B880F911D9695879576
:1013900097F9089597F99F6780E870E060E00895F5
:1013A0009FEF80EC089500240A941616170618067D
:1013B0000906089500240A94121613061406050659
:1013C0000895092E0394000C11F4882352F0BB0FEA
:1013D00040F4BF2B11F460FF04C06F5F7F4F8F4F4D
:0813E0009F4F0895F894FFCF20
:1013E80001000000000000020000000036060000B6
:1013F8000000202020202020202020202020202025
:1014080020202320202020202020202020202020D1
:1014180020202020202020202020232020202020C1
:1014280020202020202023202020202020202020B1
:101438002020004D656E7500537461727400202081
:101448002020202020202320202020202020202091
:0E145800202020202020202020202023000003
:00000001FF
